:1000000050C0000076C0000074C0000072C0000044
:1000100070C000006EC000000C94B20B6AC00000FB
:1000200068C0000066C0000064C0000062C000003C
:1000300060C000000C946E0C5CC000005AC0000050
:1000400058C000000C94480C0C94220C52C00000C4
:100050000C94430B4EC000004CC000004AC000008E
:100060000C94680B0C94D10A44C0000042C00000FC
:1000700040C000000C94F90A3CC000000C94FC0B3A
:100080000C94D70B36C000000C948D0B0C941E0BF7
:1000900030C000002EC000002CC000002AC00000AC
:1000A000CB0C11241FBECFEFCDBFDFE3DEBF2AE2B2
:1000B000A4E0B8E201C01D92AC33B207E1F718E248
:1000C000A0E0B8E2E5ECF1E302C005900D92A430A7
:1000D000B107D9F710E0C1E5D0E004C02197FE01D7
:1000E0000E941115C035D107C9F70E94220D0C944A
:1000F0004E1586CFE8EFF8E288E690E03DE943E070
:100100002191DC01B4615C91251759F02C932FB734
:10011000F89434BF409300102FBF2091021021FDAE
:10012000FCCF01968C36910559F788EF98E2089537
:10013000CF93DF9390E0FC01E650F54920812F3FFB
:1001400069F0FC01ED5DF449A08130E2A39FD0018C
:100150001124BC5F613029F411962C93DF91CF916B
:1001600008958F529549EC01E881EF3F81F0CD0170
:100170004096E80FF92FF11D9FB7F89412962C9333
:100180008081623039F4886080839FBFE7CFF0E0E0
:10019000E0E0F2CF877FF8CF7F928F929F92AF926D
:1001A000BF92CF92DF92EF92FF920F931F93CF9364
:1001B000DF938C016A017B018091012890910228D4
:1001C000879749F061E087E2B3DF87E290E08093B0
:1001D000012890930228809101289091022830E014
:1001E00020E0893291054CF4FC01ED5DF449208159
:1001F00040E2249F900111243C5FE9012796772477
:100200007A948932910524F486509549FC017080D6
:10021000980150E040E060E079E08DE390E00E94DA
:10022000E91449015A01F1E08F1A9108A108B108B7
:100230002FEF3FEFA901C114D104E104F10469F0EB
:10024000D801AA0FBB1FA70196010E949F1428EE98
:1002500033E040E050E00E947D149FB7F89482E0C4
:100260008093900A1092910A80929C0A90929D0A23
:1002700081E08093950AC093F628D093F728709276
:10028000F5282093F1283093F2284093F3285093D7
:10029000F4288091900A81608093900A9FBFDF913B
:1002A000CF911F910F91FF90EF90DF90CF90BF9073
:1002B000AF909F908F907F90089590E0FC01E8555B
:1002C000F549E081EE2319F1E13021F000F1E6304B
:1002D000A8F008958F529549FC012081233008F041
:1002E0002F5F3091010A81E090E001C0880F2A95CC
:1002F000EAF7809583238093010A089580E1E89FBF
:10030000F0011124E05AF54F81818F7E8183089599
:100310000F931F93CF93DF93082F10E0F801E6505F
:10032000F549D081DF3F99F0C62F893208F4C5DF47
:10033000F801ED5DF449E08180E2E89FF0011124CD
:10034000FC5F80818D2371F0C11106C0D683DF91DF
:10035000CF911F910F910895C43011F4D783F7CF37
:10036000D583F5CFD801AF52B5498C91309771F054
:100370008F3F61F07096E80FF11D9FB7F894808170
:10038000C11107C0877F80839FBFE1CFF0E0E0E02D
:10039000F4CF8860F8CF893208F4BACF089582E0AC
:1003A0008CDF8091080482FB882780F908958FB73D
:1003B000F89420919728309198284091992850914D
:1003C0009A28E091AA0AF091AB0A9091A60A90FFB0
:1003D00008C02F5F3F4F4F4F5F4FE091AA0AF09147
:1003E000AB0A8FBFA8EEB3E00E949F1424E0F695FD
:1003F000E7952A95E1F76E0F7F1F811D911D0895E6
:100400008F929F92AF92BF92CF92DF92EF92FF9224
:100410004B015C01CCDF6B017C01A8EEB3E0A501D0
:1004200094010E949F14C60ED71EE81EF91EC61620
:10043000D706E806F90610F4BADFF9CFB8DF6C1575
:100440007D058E059F05D0F3FF90EF90DF90CF9054
:10045000BF90AF909F908F9008950F931F93CF936D
:10046000DF938C01D0E0C0E061E086E251DF48EC30
:1004700050E060E070E08FE69FE08EDE68EC70E0B8
:1004800080E090E0BDDF60E086E242DF68EC70E093
:1004900080E090E0B5DF21960C171D0729F7DF916A
:1004A000CF911F910F91089561E086E231DF68E7F7
:1004B00070E080E090E0A4DF60E086E229CF2FB713
:1004C000F89460919728709198288091992890913C
:1004D0009A282FBF08950895AF92BF92CF92DF92CE
:1004E000EF92FF920F931F93CF93DF936C017B01E9
:1004F0008B01040F151FEB015E01AE18BF08C0177A
:10050000D10759F06991D601ED91FC910190F081EC
:10051000E02DC6010995892B79F7C501DF91CF91AF
:100520001F910F91FF90EF90DF90CF90BF90AF9011
:100530000895EF92FF920F931F93CF93DF9390E272
:10054000899FE0011124DC5FE984082F000F000F70
:10055000000FFF24F39410E08E2D8F2179F0E02F0F
:10056000E10FF0E0EE0FFF1FE95EF74D8081918112
:10057000892B21F00190F081E02D09951F5FFF0C80
:10058000183051F7E986DF91CF911F910F91FF90BD
:10059000EF900895FC01A485B58511968C91119773
:1005A00081FD0FC09C9186898F5F8F7327892817E3
:1005B00049F0A689AE0FBF2FB11D5D969C93868B27
:1005C00008958C910895FC01508D418D252F30E0C8
:1005D000842F90E0821B930B541710F0CF96089550
:1005E00001970895FC0196898789981761F0A7897A
:1005F000AE0FBF2FB11D5D968C9197899F5F9F7342
:10060000978B90E008958FEF9FEF0895FC019689F6
:100610008789981731F08789E80FF11D858D90E063
:1006200008958FEF9FEF0895FC0196892789892F00
:1006300090E0805C9F4F821B91098F7399270895EA
:100640008CEF98E2F1DF21E0892B09F420E0822F82
:10065000089589E999E2E8DF21E0892B09F420E097
:10066000822F0895CF93DF93EC01E881F981068012
:10067000F781E02D0995EC85FD8586818F73868352
:10068000EC85FD8585818F7585838F898E8B1D8A8D
:10069000DF91CF910895AF92BF92CF92DF92EF9208
:1006A000FF920F931F93CF93DF93EC016A017B01BD
:1006B000A22E8D89882339F0E881F9810688F7898F
:1006C000E02DCE0109950C8910E0BFB6F89460E0EA
:1006D00070E281EA97E0A70196010E947D1469010A
:1006E0007A018FEFC81AD80AE80AF80AF694E79454
:1006F000D794C794EC85FD8586818D7F8683EC85B4
:10070000FD85868186831D8AA09123110A2E000C07
:10071000BB0BA70196010E940B1520E034E040E0DE
:1007200050E00E94E914EC85FD85C20ED31EE41E44
:10073000F51EC086D186EC85FD85A782EC85FD85FA
:100740008681806C8683EC85FD85858180688583C4
:100750009091E2058B89809589237801EE0CFF1C2E
:10076000F701E00FF11FEC0FFD1F9089892B80939B
:10077000E2058685893210F462E0DADC0E0D1F1D79
:10078000C00FD11F61E08F8506DE8F85893210F49E
:1007900061E0CEDCBFBEDF91CF911F910F91FF9042
:1007A000EF90DF90CF90BF90AF900895FC01613043
:1007B00019F4648B81E00895148A6623D9F380E0EC
:1007C0000895DC0154961C92549754968C9154973A
:1007D0008230A0F4282F30E0F901EE0FFF1FE20F66
:1007E000F31FEA0FFB1F9785961303C09685941796
:1007F00049F08F5F54968C935497E7CF54961C9290
:1008000080E0089581E00895CF93DF93FC01908DFF
:10081000818DC485D585981306C08D818F7D8D838C
:10082000DF91CF910895A18DAE0FBF2FB11DA35AB7
:10083000BF4F2C91818D90E001968F739927818F06
:1008400080E48C83A485B58512962C93908D818D40
:100850009813E6CFA485B58515968C9115978F7D55
:1008600015968C93838D8823D9F2848D8093130100
:10087000138ED6CFDC011C96ED91FC910FB607FECE
:1008800003C0258125FD03C0248125FDBDCF08952A
:10089000EF92FF920F931F93CF93DF93EC0181E0D0
:1008A0008D8B988D898D98131CC0AC85BD85149651
:1008B0008C91149785FF15C012966C93AC85BD85FD
:1008C00080E414968C93EC85FD8585818F7D8583EE
:1008D00081E090E0DF91CF911F910F91FF90EF9019
:1008E00008958091110180FF08C0809113018C8FC1
:1008F0008A8D8093130181E08B8FF62E088D10E096
:100900000F5F1F4F0F731127E02E898D8E1103C0CB
:10091000CE01B0DFFACFE88DEC0FFD2FF11DE35AC9
:10092000FF4FF082088FEC85FD8585818062CFCFF7
:10093000CF93DF93FC0125892223C1F0EC01809144
:10094000110180FF08C080911301848F828D8093F4
:10095000130181E0838FEC85FD85858185FD03C0D2
:10096000848186FD03C0CE0185DFF5CFDF91CF9175
:10097000089580E090E0892B21F06BDE81110E94C8
:10098000000080E090E0892B49F080E090E0892B26
:1009900029F00E94000081110E94000080E090E098
:1009A000892B21F04DDE81110E94000080E090E053
:1009B000892B49F080E090E0892B29F00E9400000B
:1009C00081110C940000089581E008959B012C5F33
:1009D0003F4FFB01AC01461B570BDA01AE0FBF1FA7
:1009E000B4619C919193E217F307B9F7CB01089595
:1009F000AD9A4E9A2A9AAC9A8E98289829986B9A12
:100A00006A9A699A689AAE98AE98AE98AE98AE9A7D
:100A1000AE98AE9860E082E08BDB61E083E088DB3B
:100A200061E084E085DB61E085E082DB61E086E017
:100A30007FDB62E087E07CDB61E088E079DB61E01E
:100A400089E076DB61E08AE073DB61E08EE070DBF9
:100A500061E08FE06DDB61E080E16ADB61E081E114
:100A600067DB60E086E164DB60E087E161DB60E03A
:100A700088E15EDB60E089E15BDB60E084E158DB1C
:100A800060E08BE155DB61E08EE152DB61E08FE1FC
:100A90004FDB61E080E24CDB61E081E249DB61E059
:100AA00084E246DB61E086E243DB61E087E240DB33
:100AB00061E08BE03DDB61E08CE03ADB61E08DE002
:100AC00037DB61E082E134DB61E083E131DB61E06F
:100AD00085E12EDB61E08AE12BDB61E08DE128DB43
:100AE00061E085E225CB4CE251E060E070E083E418
:100AF00099E052DB60E971E080E090E081DC44EF56
:100B000051E060E070E088EB97E046DB64E670E07F
:100B100080E090E075CC8E9A65E070E080E090E037
:100B20006FDC1092060681E08093080680910B0628
:100B300080FFFCCFA0911006B09111068E9828E599
:100B400032E00E9405152FEF33E040E050E00E94B4
:100B5000E914C9010895CF93C1E08CEF98E264DDF8
:100B600020919C2818161906ACF5211133C08CEF82
:100B700098E238DD20910428309105288A30B9F4B4
:100B80002356374DF9011082C0939C2810920428F7
:100B9000109205288091042890910528CF97E9F6B6
:100BA000C0939C281092042810920528D6CF882341
:100BB00089F38D3079F3F901E356F74D80832F5F88
:100BC0003F4F20930428309305282356374DF901D1
:100BD0001082E0CF822FCF91089571DC6B017C01F0
:100BE0006EDC6C197D098E099F0968387341810597
:100BF000910598F4AD984E982A98AC986EEE72E0F4
:100C000080E090E0FDDBAD9A4E9A2A9AAC9A6EEEA7
:100C100072E080E090E0F4DBE3CFAE9865E070E056
:100C200080E090E0EDDBAE9A65E070E080E090E07F
:100C3000E7DB88EDA89584BF809100018B608093ED
:100C400000018091010181FDFCCFFFCFEF92FF9267
:100C50000F931F93CF93DF937B0121E0209395287F
:100C60002093002810920A2810920B28880F991FB1
:100C70000197809306289093072860930828709323
:100C8000092840930C2850930D2800EA1AE6D0E07A
:100C9000C0E0CE15DF0544F4F80180810E5F1F4FE0
:100CA00060E079DB2196F5CF0ADC60930E28709323
:100CB0000F288093102890931128DF91CF911F91D6
:100CC0000F91FF90EF90089561E083E064DB61E0B5
:100CD00084E061DB61E085E05EDB61E086E05BCBC8
:100CE000F3DF68EC70E080E090E08ADB44E650E0FF
:100CF00060E070E080E99BE04FDA64E670E080E05D
:100D000090E07EDB44E650E060E070E08DE49AE045
:100D100043DA64E670E080E090E072DB4CE251E0A0
:100D200060E070E088EB97E037DA64E670E080E03E
:100D300090E066DB60918728709188286150710986
:100D400048EC50E083E090E081CF60E083E023DB7B
:100D500060E084E020DB60E085E01DDB60E086E0B1
:100D60001ACBDC01ED91FC910488F589E02D23E09C
:100D700030E00994FB0101900020E9F73197AF01C1
:100D8000461B570BA9CB8F929F92AF92BF920F93A6
:100D90001F93CF93DF93CDB7DEB7A197CDBFDEBF53
:100DA00019A2423008F44AE08E010F5D1F4F842ED5
:100DB000912CB12CA12CA50194010E947D14E62F49
:100DC000B901CA01EA30E4F4E05DD801EE938D0187
:100DD000232B242B252B79F790E080E0109721F02E
:100DE000BD0189E999E2C6DFA196CDBFDEBFDF91E3
:100DF000CF911F910F91BF90AF909F908F900895CA
:100E0000E95CE3CF0F931F93CF93DF93EC01B2DF45
:100E10008C016AE67BE6CE01ADDF800F911FDF918A
:100E2000CF911F910F91089576DE843521E09207CE
:100E30000CF440C0813621E092070CF452C0803798
:100E400021E092075CF1873721E0920754F188385E
:100E500021E092074CF18F3991404CF186E090E00F
:100E6000809387289093882888E893E1A0E0B0E0F9
:100E700080938C2890938D28A0938E28B0938F28F0
:100E80000895809186288111FBCF6DE67BE689E984
:100E900099E2B8DF81E08093862822CF82E090E05B
:100EA000DFCF83E090E0DCCF84E090E0D9CF85E035
:100EB00090E0D6CF109287281092882888EE93E091
:100EC000A0E0B0E080938C2890938D28A0938E288A
:100ED000B0938F288091892890918A28019789F66C
:100EE000089581E090E0809387289093882888EE89
:100EF00093E0A0E0B0E0BCCFCF93DF934AE043DFC4
:100F0000EC016AE67BE689E999E234DF8C0F9D1FEC
:100F1000DF91CF910895CF92DF92EF92FF92CF931E
:100F2000DF936C01990FEE08FF08F7FE17C06DE222
:100F300089E999E2ADDCEC0166277727CB016C19D2
:100F40007D098E099F094AE01EDF8C0F9D1FDF91EE
:100F5000CF91FF90EF90DF90CF9008954AE0C701C6
:100F6000B601DF91CF91FF90EF90DF90CF900BCF44
:100F700082FD0DC0699A81FD0CC06A9A80FD0BC08C
:100F80006B9A61E081E1D4D861E081E1C1C96998DF
:100F9000F2CF6A98F3CF6B98F4CF2F923F924F9293
:100FA0005F926F927F928F929F92AF92BF92CF92F9
:100FB000DF92EF92FF920F931F93CF93DF93CDB702
:100FC000DEB72697CDBFDEBF7ADA69837A838B835B
:100FD0009C83FEEF2F2EBFDD382E882301F1109267
:100FE0009C286BE87BE689E999E2C4DE6DE978E24A
:100FF00089E999E207DF62E270E08DE998E20E94F8
:1010000017158C0162E270E08DE998E20E942915C3
:101010008D839E830115110591F420929B284FDA50
:1010200029813A814B815C81621B730B840B950B88
:10103000693E73408105910570F2312CF9C02D8114
:101040003E812115310549F30217130730F7C90115
:10105000801B910B419709F7F901108240E150E0A4
:1010600070E060E0C80109960E947D134B015C01AD
:101070002D813E8128503109F901108240E150E074
:1010800070E060E0C80101960E947D136B017C0155
:1010900080E297E3AFEEB6ECAC01BD012BE07695B4
:1010A0006795579547952A95D1F7FA01E370FF2781
:1010B000EE0FFF1FEE0FFF1FE352F74D40805180F0
:1010C00062807380480E591E6A1E7B1EB701A601FE
:1010D000E4E0440F551F661F771FEA95D1F797018B
:1010E0008601F5E03695279517950795FA95D1F77E
:1010F00040275127622773274C0D5D1D6E1D7F1DF4
:101100004425552566257725841A950AA60AB70A27
:10111000895B9947A743BE49FC01E370FF27EE0FA7
:10112000FF1FEE0FFF1FE352F74D4080518062809A
:101130007380480E591E6A1E7B1EB501A40104E08F
:10114000440F551F661F771F0A95D1F7950184013B
:10115000E5E03695279517950795EA95D1F740274D
:10116000512762277327480D591D6A1D7B1D442591
:10117000552566257725C41AD50AE60AF70A009789
:10118000A105B10509F088CF4D2C5E2C6F2C77247A
:1011900062EB7BE689E999E2EDDDC301B201ACDEE9
:1011A0008091ED289091EE28A091EF28B091F02841
:1011B000481659066A067B0621F0FDEFF0939B283E
:1011C0002ECF6AEC7BE689E999E2D4DDC501B40152
:1011D00093DE67EE7BE689E999E2CCDD6091F82841
:1011E0007091F9288091FA289091FB2885DE8091F2
:1011F000F8289091F928A091FA28B091FB28881638
:101200009906AA06BB0620F42CEF20939B2807CF53
:101210008092F8289092F928A092FA28B092FB28A0
:101220000E947A00C0929B283BEF3C1508F4F7CE51
:10123000832D2696CDBFDEBFDF91CF911F910F91F9
:10124000FF90EF90DF90CF90BF90AF909F908F90E6
:101250007F906F905F904F903F902F9008958F9266
:101260009F92AF92BF92CF92DF92EF92FF920F9335
:101270001F93CF938C014A015B0121D96B017C0143
:101280006ADCC82F811111C01AD96C197D098E0929
:101290009F0986169706A806B90690F763E07CE6D4
:1012A00089E999E2AFDDC0E00EC010929C286DE99B
:1012B00078E289E999E2A6DDB8018DE998E20E9419
:1012C0003415892B09F38C2FCF911F910F91FF902B
:1012D000EF90DF90CF90BF90AF909F908F90089548
:1012E00061E37CE68CEF98E28DDD48EE53E060E050
:1012F00070E08DE39CE6B3DF811106C063E47CE619
:1013000089E999E27FDD69CC08954F925F926F92EF
:101310007F928F929F92AF92BF92CF92DF92EF9285
:10132000FF920F931F93CF93DF93CDB7DEB728972C
:10133000CDBFDEBF182F8091F8289091F928A09199
:10134000FA28B091FB280196A11DB11D8093F828C1
:101350009093F928A093FA28B093FB280E947A0072
:101360008091ED289091EE28A091EF28B091F0287F
:10137000BA2FA92F982F8827812BC090F828D090BA
:10138000F928E090FA28F090FB2840E050E0BA01FC
:10139000FA01E370FF27EE0FFF1FEE0FFF1FE3526E
:1013A000F74D0081118122813381040F151F261F03
:1013B000371F46015701E4E0880C991CAA1CBB1C8E
:1013C000EA95D1F726013701F5E0769467945794B2
:1013D0004794FA95D1F784249524A624B7248C0C3D
:1013E0009D1CAE1CBF1C082519252A253B25800FF6
:1013F000911FA21FB31F47545648684C71468A017B
:101400009B01EBE03695279517950795EA95D1F75F
:1014100003701127000F111F000F111FF801E35275
:10142000F74D0081118122813381040F151F261F82
:10143000371F4C015D01E4E0880C991CAA1CBB1C01
:10144000EA95D1F72C013D01F5E076946794579425
:101450004794FA95D1F784249524A624B724880EBE
:10146000991EAA1EBB1E082519252A253B25C00E3C
:10147000D11EE21EF31E403227E352072FEE620711
:1014800026EC720709F084CF89839A83AB83BC83EF
:10149000CD82DE82EF82F8866BE67CE68DE998E20B
:1014A0000E942215EDE9F8E230E020E0D90183E066
:1014B000B595A7958A95E1F7AA0FBB1FAA0FBB1F89
:1014C00081E090E08C0F9D1FA80FB91FA9014095E6
:1014D000509547705527440F551F440F551F8D9148
:1014E0009D910D90BC91A02D04C0B695A7959795A0
:1014F00087954A95D2F78F708A3088F5805D818B09
:101500002F5F3F4F31962031310581F682E2809383
:10151000BE281092BF286DE978E289E999E272DC71
:101520006DE978E28CEF98E26DDC48EC50E060E029
:1015300070E08DE79CE62896CDBFDEBFDF91CF91AE
:101540001F910F91FF90EF90DF90CF90BF90AF90E1
:101550009F908F907F906F905F904F9080CE895C2E
:10156000CECFCF92DF92EF92FF926B017C0165E8C4
:101570007CE68CEF98E246DCB701A60188E89CE6A1
:101580006EDE811109C06FE87CE689E999E2FF907F
:10159000EF90DF90CF9036CCFF90EF90DF90CF9020
:1015A00008951F920F920FB60F9211248F939F935D
:1015B000AF93BF938091972890919828A0919928F4
:1015C000B0919A280196A11DB11D80939728909300
:1015D0009828A0939928B0939A2881E08093A60A2E
:1015E000BF91AF919F918F910F900FBE0F901F9061
:1015F00018951F920F920FB60F9211242F933F93BD
:101600004F935F936F937F938F939F93AF93BF930A
:10161000EF93FF9385E00E949902FF91EF91BF91B4
:10162000AF919F918F917F916F915F914F913F917A
:101630002F910F900FBE0F901F9018951F920F9231
:101640000FB60F9211242F933F934F935F936F9395
:101650007F938F939F93AF93BF93EF93FF9384E018
:101660000E949902FF91EF91BF91AF919F918F914D
:101670007F916F915F914F913F912F910F900FBE8E
:101680000F901F9018951F920F920FB60F92112472
:101690002F933F934F935F936F937F938F939F937A
:1016A000AF93BF93EF93FF9383E00E949902FF9162
:1016B000EF91BF91AF919F918F917F916F915F91CA
:1016C0004F913F912F910F900FBE0F901F90189543
:1016D0001F920F920FB60F9211242F933F934F93A7
:1016E0005F936F937F938F939F93AF93BF93EF938A
:1016F000FF9382E00E949902FF91EF91BF91AF9119
:101700009F918F917F916F915F914F913F912F9119
:101710000F900FBE0F901F9018951F920F920FB64B
:101720000F9211242F933F934F935F936F937F9367
:101730008F939F93AF93BF93EF93FF9381E00E94AA
:101740009902FF91EF91BF91AF919F918F917F91FE
:101750006F915F914F913F912F910F900FBE0F901E
:101760001F9018951F920F920FB60F9211242F936E
:101770003F934F935F936F937F938F939F93AF9319
:10178000BF93EF93FF9380E00E949902FF91EF9146
:10179000BF91AF919F918F917F916F915F914F9189
:1017A0003F912F910F900FBE0F901F9018951F9291
:1017B0000F920FB60F9211242F933F934F935F9385
:1017C0006F937F938F939F93AF93BF93EF93FF9309
:1017D0008CEF98E219D8FF91EF91BF91AF919F9153
:1017E0008F917F916F915F914F913F912F910F90CA
:1017F0000FBE0F901F9018951F920F920FB60F9269
:1018000011242F933F934F935F936F937F938F9305
:101810009F93AF93BF93EF93FF938CEF98E20E9457
:10182000CA02FF91EF91BF91AF919F918F917F91EC
:101830006F915F914F913F912F910F900FBE0F903D
:101840001F9018951F920F920FB60F9211242F938D
:101850003F934F935F936F937F938F939F93AF9338
:10186000BF93EF93FF9389E999E20E940404FF91EB
:10187000EF91BF91AF919F918F917F916F915F9108
:101880004F913F912F910F900FBE0F901F90189581
:101890001F920F920FB60F9211242F933F934F93E5
:1018A0005F936F937F938F939F93AF93BF93EF93C8
:1018B000FF9389E999E20E94CA02FF91EF91BF91DB
:1018C000AF919F918F917F916F915F914F913F91D8
:1018D0002F910F900FBE0F901F9018951F920F928F
:1018E0000FB60F9211248F939F93AF93BF93EF93F3
:1018F000FF938091F1289091F228A091F328B09164
:10190000F428892B8A2B8B2BA9F1E091F628F091F2
:10191000F7288091F52880838091F1289091F22812
:10192000A091F328B091F428181619061A061B0680
:101930009CF48091F1289091F228A091F328B09125
:10194000F4280197A109B1098093F1289093F22816
:10195000A093F328B093F42881E08093960AFF9136
:10196000EF91BF91AF919F918F910F900FBE0F900C
:101970001F9018958091F1289091F228A091F3285A
:10198000B091F428892B8A2B8B2B31F71092950A72
:101990001092900AE1CFECEFF8E21282138248EE47
:1019A00053E060E070E0448355836683778380E58D
:1019B0009BE68083918320E438E02487358723E207
:1019C000268722E22787108A27E2218B26E2228BB4
:1019D00020E1238B148A158A168A178A108E118E9D
:1019E00020E2228F138E148EE9E9F9E2128213822B
:1019F00044835583668377838083918380E098E076
:101A00008487958781E086871786108A95E0918B79
:101A100094E0928B838B148A158A168A178A108E0B
:101A2000118E82E1828F138E148E8AE194E0A0E001
:101A3000B0E08093362A9093372AA093382AB09347
:101A4000392A089588ED90E084BF909361008091D9
:101A50000206866080930206809100068160809372
:101A60000006809102068F7C8065809302061092AA
:101A7000E20582E08093E40581E08093030A8EEF23
:101A80008093270A8093260A80E880932D0A80930A
:101A90002B0A8093290A80932C0A80932A0A809328
:101AA000280A8BE08093000A87E08093E505E0E850
:101AB000FAE037E02EEF90E885E0318324879587C0
:101AC00080837096E03C4AE0F407B9F71092A10ACF
:101AD0008FE79EE38093AC0A9093AD0A8091A50AAC
:101AE00081608093A50A1092A00A8091A00A81606B
:101AF0008093A00A78940E94F804789440E052EC15
:101B000061E070E089E999E22CD96AEB7CE689E929
:101B100099E278D967EC7CE689E999E273D940E0EB
:101B200054E863E070E08CEF98E21BD965E87CE64E
:101B300089E999E267D965E87CE68CEF98E262D999
:101B400048EE53E060E070E087EC9BE688DB8111B3
:101B50005CC068ED7CE689E999E254D940E855E239
:101B600060E070E08CEF98E2FCD868E07DE689E9FF
:101B700099E248D96EE37DE689E999E243D96EE3BB
:101B80007DE68CEF98E23ED948EE53E060E070E0ED
:101B900081E59DE664DB811101C01FD863E67DE627
:101BA00089E999E22FD963E67DE68CEF98E22AD99C
:101BB00048EE53E060E070E08CE69DE650DB882361
:101BC00061F38CEF98E20E94320340E054E863E056
:101BD00070E08CEF98E2C5D867EC7CE689E999E281
:101BE00011D965E87CE68CEF98E20CD965E87CE6D3
:101BF00089E999E207D948EE53E060E070E087E7B1
:101C00009DE62DDB882309F4C8CF6FE77DE689E9DF
:101C100099E2F8D86FE77DE68CEF98E2F3D848EECA
:101C200053E060E070E08CE89DE619DB882309F45E
:101C3000B4CF68E97DE689E999E2E4D868E97DE610
:101C40008CEF98E2DFD848EE53E060E070E08CE87B
:101C50009DE605DB882309F4A0CF62EA7DE689E9E9
:101C600099E2D0D862EA7DE68CEF98E2CBD848EED4
:101C700053E060E070E080ED9DE6F1DA882309F43E
:101C80008CCF68ED7DE689E999E2BCD86AE67BE60F
:101C900089E999E26FD86DEE78E284E690E00E94DF
:101CA000E60468EF78E288E690E00E94E6046DEDD5
:101CB00078E28CE690E00E94E60461EE78E280E74C
:101CC00090E00E94E60465EE78E284E790E00E94EE
:101CD000E60469EE78E288E790E00E94E604A4D882
:101CE00010928B2881E08093962888E893E1A0E009
:101CF000B0E080938C2890938D28A0938E28B09389
:101D00008F28299A98EA692E9AE6792ECC24C394D2
:101D1000D12C38EC432E4BE6A42E42E0B42E5AE0F0
:101D2000552E80919628882309F486C080919528A5
:101D3000811182C010929628C2E0D0E000EA1AE633
:101D4000F801F0800E5F1F4F60E08F2D0E94CB01E5
:101D500066E970E080E090E00E94000261E08F2D73
:101D60000E94CB016016710659F760E085E00E9481
:101D7000CB0166E970E080E090E00E94000261E043
:101D800085E00E94CB0160E084E00E94CB0166E91F
:101D900070E080E090E00E94000261E084E00E9438
:101DA000CB01219719F0C1E0D0E0C8CF60E083E01B
:101DB0000E94880166E970E080E090E00E940002E5
:101DC00061E083E00E94880144E650E060E070E05A
:101DD00080E99BE00E94CC0064E670E080E090E047
:101DE0000E94000244E650E060E070E08FE69FE071
:101DF0000E94CC0064E670E080E090E00E94000267
:101E000048EC50E060E070E082E591E10E94CC0097
:101E100064E670E080E090E00E9400026091872814
:101E2000709188286150710940ED57E081E090E0A1
:101E30000E942606109294280E945F02009190282A
:101E4000109191282091922830919328601B710B5A
:101E5000820B930B00918C2810918D2820918E2855
:101E600030918F28061717072807390720F080912F
:101E70008B28882379F18091952881112BC00E94AD
:101E80005F0260939028709391288093922890939A
:101E900093280E9414078091892890918A2801979D
:101EA000B9F080919528811113C080918B2890E022
:101EB0000196489EA001499E500D112460918728EB
:101EC000709188286150710981E090E00E94260697
:101ED00010928B288091892890918A28009709F484
:101EE000B2C0019709F48DC380918628882309F434
:101EF0001FC18091952881111BC11092862867E32C
:101F000071E789E999E20E94020780918128811195
:101F100004C081E080938128E3D90E94F804809175
:101F2000500081608093500080915000897F8460D0
:101F3000809350001092752889E999E20E949804D4
:101F400089E999E20E94320361E080E00E949800F2
:101F5000AE98A0921B28B0921C2880911204887F12
:101F600080931204809112048360809312048895F8
:101F7000809150008E7F8093500080911204887F62
:101F80008093120410921B2810921C28109903C0F1
:101F900081E08093752860E080E00E94980040E036
:101FA00052EC61E070E089E999E20E94B1066DE4CB
:101FB00071E789E999E20E940207299A80917528C0
:101FC0008823B1F10E945F0260937D2870937E2880
:101FD00080937F28909380286BE571E789E999E2E7
:101FE0000E9402076EE571E080E090E00E9400022E
:101FF0000E945402C0EADAE68881229660E00E94DC
:10200000CB01109B65C30E94640666E771E789E90E
:1020100099E20E94020781E0809386281092962818
:102020000E94CF018823E1F31092892810928A2818
:102030000E945F0260938228709383288093842893
:102040009093852875C00E94CF01811132C0809184
:10205000942881112EC08091862881112AC081E0A8
:10206000809394280E945F02609382287093832853
:10207000809384289093852880918128882339F043
:1020800068EC70E080E090E06CDA109281280E94A9
:1020900054020E945F0260937D2870937E28809393
:1020A0007F28909380286DEE7DE689E999E20E9471
:1020B00002070E945F0200917D2810917E282091E6
:1020C0007F2830918028601B710B820B930B00914D
:1020D000362A1091372A2091382A3091392A06174A
:1020E000170728073907E8F5809194288823C9F154
:1020F00080918628811135C06CE17EE689E999E2FC
:102100000E9402070E94A506C6EADAE66EE571E0C3
:1021100080E090E00E94000261E088810E94CB0193
:102120000E94CF01813039F40E94640610929428F5
:102130000E94B904F6CD2297FAE6C03ADF0731F7DC
:102140006EE571E080E090E00E94000261E083E0D3
:102150000E94880181E0809386280E947006109278
:1021600094280E94CF01813009F08AC08091942880
:10217000882309F485C080918628811181C010923E
:10218000942860E37EE689E999E20E94020780EFE5
:10219000BCD8882309F474C067E67EE689E999E231
:1021A0000E94020761EB7EE68CEF98E20E94020734
:1021B00048EE53E060E070E089EB9EE650D80E9464
:1021C000CD07882309F47DC161EC7EE689E999E2B7
:1021D0000E94BA0680919B2890E0845D9E4F0E94E9
:1021E0008B076BEE7EE689E999E20E9402076DEEAD
:1021F0007EE689E999E20E94BA060E948B050E9458
:102200008B076BEE7EE689E999E20E9402078091D6
:102210009B2890E0845D9E4F843521E09207FCF07E
:10222000813641E094070CF446C18037E1E09E0717
:102230000CF444C1C3E0D0E08737F1E09F076CF0B5
:10224000C4E0D0E0883821E092073CF0C6E0D0E05E
:102250008F39914014F4C5E0D0E081E003C0D0E0B4
:10226000C0E086E00E94B807BE016150710948ECE9
:1022700050E083E090E00E94260681E080938B2866
:10228000B69B02C0B6992CC080917C28811128C0D1
:1022900081E080937C280E945F0260938228709383
:1022A000832880938428909385288091812888238F
:1022B00039F064E670E080E090E053D91092812814
:1022C0000E945F02609378287093792880937A281F
:1022D00090937B2860E67FE689E999E20E940207F5
:1022E000B6999FC0B6999DC00E945F020091782860
:1022F0001091792820917A2830917B28601B710BEE
:10230000820B930B683C71058105910508F089C02B
:1023100063E77FE689E999E20E94020780917628C7
:1023200090917728019680937628909377288FE074
:102330000E948509882309F474C064E97FE689E96D
:1023400099E20E94020761EB7EE68CEF98E20E9420
:10235000020748EE53E060E070E089EB9EE60E94E1
:102360002F090E94CD07882329F080919B28863071
:1023700009F4B7C064ED7FE689E999E20E9402079B
:102380000E94730584E00E94B80740ED57E070E0BA
:1023900060E081E090E00E9426060E94CD0788233D
:1023A00009F4C2C064E570E789E999E20E94BA06BF
:1023B00080919B28859DC00111240E948B0767E7AF
:1023C00070E789E999E20E9402076AE770E789E904
:1023D00099E20E94BA060E945F020091782810914B
:1023E000792820917A2830917B28601B710B820B11
:1023F000930B4AE00E94C30667E770E789E999E218
:102400000E94020783E090E00E942D0282E00E9479
:10241000B80740ED57E070E060E081E090E00E9496
:102420002606B69B21C0B69B1FC00E945F0200918A
:1024300078281091792820917A2830917B28601B88
:10244000710B820B930B693C71058105910510F0AE
:1024500010927C280E945F026093782870937928FC
:1024600080937A2890937B280E945F0200918228B3
:10247000109183282091842830918528601B710B4E
:10248000820B930B613177428105910548F0809171
:102490008128811105C081E0809381280E94700904
:1024A0008091952874994AC081114BC0C0928928A7
:1024B000D0928A2819CDC1E0D0E0D3CEC2E0D0E0DE
:1024C000D0CE67E17FE689E999E20E94020784E0C5
:1024D0000E94B80740ED57E070E060E081E090E0D6
:1024E000CACE68E170E789E999E20E94BA060E94C3
:1024F0005F02009178281091792820917A283091F4
:102500007B28601B710B820B930B4AE00E94C30671
:102510006FE270E789E999E20E94020781E090E0AA
:102520000E942D0282E02FCF62EB70E789E999E2E9
:102530000E9402070E94730584E069CF882309F492
:10254000D3CC0E945F0200910E2810910F28209199
:10255000102830911128AB01BC01401B510B620BBC
:10256000730B80910C2890910D28092E000CAA0B5A
:10257000BB0B481759076A077B0708F4B5CC809155
:10258000002891E0892780930028C0910A28D091E3
:102590000B282196C0930A28D0930B288823C1F0DA
:1025A00080EAE82E8AE6F82E10E000E08091082804
:1025B00090910928081719076CF4F7018081F2E05F
:1025C000EF0EF11C60E00E94CB010F5F1F4FEECFBA
:1025D0000E9464068091062890910728C817D907A1
:1025E0002CF01092952880E00E94B8070E945F02AC
:1025F00060930E2870930F288093102890931128D1
:1026000073CCB69962C00E945F02009113281091AA
:1026100014282091152830911628601B710B820B0D
:10262000930B6E3E724081059105E8F130901228BF
:1026300081E03826309212280E945F0260931328AE
:1026400070931428809315289093162800EA1AE6B0
:10265000D0E0C0E0E0908728F090882847018C1AED
:102660009D0AF80120800E5F1F4F60E0F3E08F1697
:1026700091044CF461E0822D0E94CB0122E082168D
:10268000910421F4632D822D0E94CB01EA94EF285E
:1026900031F4209721F4632D83E00E94CB01219631
:1026A000C430D105B9F6749B1FCC69EF70E789E996
:1026B00099E20E9402071092892810928A280E94AB
:1026C000640681E0809396280FCC0E94A506EBCF8C
:1026D0006EE571E080E090E00E9400028AE6C83A70
:1026E000D80709F089CC61EA71E789E999E20E948B
:1026F000020781E08093962893CCB0E0A0E0E2E866
:10270000F3E128C15C016B017A016115710519F0D3
:10271000FB0180839183E114F10449F0C701029722
:10272000839728F060E070E0CB019AC05E01E5017C
:102730002196F5011081812F90E0C5D0892BB1F74A
:102740001D3209F055C02196F501118101E0E11417
:10275000F10409F4ABC0F0E1EF16F10409F08CC00C
:10276000103341F488818F7D883509F081C019814B
:1027700022960260E0E1EE2EF12C88248A94982CB7
:10278000A82CFFE0BF2E20E060E070E0CB01270125
:102790000F2C000C66087708FE0150ED352E310E27
:1027A00039E0331538F43FEB310F3A3198F549EC05
:1027B000342E310E3E141F04B4F52F3FB1F08616AF
:1027C0009706A806B90668F1A301920187D0232DC8
:1027D00030E050E040E0620F731F841F951F6217C6
:1027E000730784079507E8F021E021961081D4CF84
:1027F0001B3221F4E5012296F501118100E0A7CFFB
:1028000078E0E72EF12C88248A94982CA82C6FE18C
:10281000B62EB9CF3FE9310F3A3128F439EA332ED9
:10282000C8CF2FEFE2CFC114D10431F02223E1F061
:102830002197F601C083D18300FF07C09095809552
:10284000709561957F4F8F4F9F4F2F3F49F482E2E4
:1028500090E080933A2A90933B2A6FEF7FEFCB0171
:10286000CDB7DEB7E1E18FC001FFE6CF2297E1CF20
:1028700010E3E114F10421F23AE0E316F104E1F08F
:1028800080E1E816F10409F475CFE8E0EE16F104F2
:1028900009F4B9CF6FEF7FEFCB0197010F2C000C3C
:1028A000440B550B2AD049015A016DCF103309F45E
:1028B00059CF9AE0E92EF12C89E9882E982CA82C82
:1028C00089E1B82E60CF911106C0803219F089508D
:1028D0008550D0F70895992788270895DB018F93B5
:1028E0009F932DD0BF91AF91A29F800D911DA39F6B
:1028F000900DB29F900D11240895A1E21A2EAA1BEB
:10290000BB1BFD010DC0AA1FBB1FEE1FFF1FA2179F
:10291000B307E407F50720F0A21BB30BE40BF50B9C
:10292000661F771F881F991F1A9469F76095709525
:10293000809590959B01AC01BD01CF0108953AD0DF
:10294000A59F900DB49F900DA49F800D911D112403
:1029500008952F923F924F925F926F927F928F9243
:102960009F92AF92BF92CF92DF92EF92FF920F931E
:102970001F93CF93DF93CDB7DEB7CA1BDB0BCDBF61
:10298000DEBF09942A88398848885F846E847D84F4
:102990008C849B84AA84B984C884DF80EE80FD8007
:1029A0000C811B81AA81B981CE0FD11DCDBFDEBFA5
:1029B000ED010895A29FB001B39FC001A39F700DC8
:1029C000811D1124911DB29F700D811D1124911D37
:1029D0000895052E97FB16F400940FD057FD05D0EF
:1029E0008CDF07FC02D046F408C050954095309526
:1029F00021953F4F4F4F5F4F08959095809570956B
:102A000061957F4F8F4F9F4F0895D4DFB7FF089593
:102A1000821B930B0895B7FF92CF91DF821B930B1C
:102A20000895EE0FFF1F0590F491E02D0994FC012D
:102A30008191861721F08823D9F799270895319736
:102A4000CF010895FB01DC0101900D920020E1F718
:102A50000895FC0181E090E00190061609F4CF0191
:102A60000020D1F701970895FB0151915523A9F05A
:102A7000BF01DC014D9145174111E1F759F4CD013A
:102A80000190002049F04D9140154111C9F3FB011F
:102A90004111EFCF81E090E001970895F894FFCFC6
:102AA0000300040005000600000000000000000014
:102AB000000000000005010101010101000000000B
:102AC0000000000000000000000000000000020301
:102AD00000000102030405060700010203040500CB
:102AE00001020304050607000102030405060700AE
:102AF000010203000102030405060102040810207C
:102B000040800102040810200102040810204080C7
:102B10000102040810204080010204080102040898
:102B20001020400000000000000000010101010130
:102B3000010202020202020202030303030303036F
:102B4000030404040405050505050505000000004F
:102B500048046C02E30298041403F2020603E10342
:102B6000D603B1064B033203E4040D0A0053687523
:102B70007474696E6720646F776E20746F20736160
:102B8000766520626174746572790046726F6D209B
:102B9000636F6D6D616E6456616C756552656365DA
:102BA00069766557697468696E57696E646F773ABC
:102BB000200054686520494420696E2074686520AF
:102BC0006D6573736167653A200054686520636FB3
:102BD000756E74657220696E20746865206D65730A
:102BE000736167653A200054686520636F756E7481
:102BF000657220696E207468652073797374656DE1
:102C00003A2000537472696E67206E6F7420666F8D
:102C1000756E6420696E204C6F5261206D65737310
:102C200061676573202D2074696D65206F7574214F
:102C30000041542B4C4F57504F57455200534C4571
:102C40004550004C6F5261204D6F64756C65206873
:102C50006176696E6720696E736F6D6E69612120A0
:102C60002D2054696D656F7574210041542B5445B6
:102C700053543D54584C52504B542C22005458201D
:102C8000444F4E450041540057414B455550004C70
:102C90006F5261207374696C6C20736C6565706928
:102CA0006E67206F7220776173206E657665722083
:102CB00061736C6565702E2E2E0048656C6C6F20FC
:102CC000576F726C64210042617564726174653A79
:102CD0002032333034303000415420746573742016
:102CE0006661696C6564202D206368616E6765208C
:102CF0006261756472617465206F66204C6F526109
:102D0000206D6F64756C65004261756472617465F5
:102D10002073657420746F3A20393630302C206E61
:102D20006F7720747279696E6720746F2073657491
:102D300020697420746F20323330343030004154B5
:102D40002B554152543D42522C20323330343030D6
:102D5000002B554152543A2042522C203233303409
:102D600030300041542B5245534554002B524553AB
:102D700045543A204F4B002B41543A204F4B0041D1
:102D8000542B4D4F44453D54455354002B4D4F4417
:102D9000453A20544553540041542B4D4F44453D32
:102DA0003F0041542B544553543D52464346472C13
:102DB0003836362C5346392C3530302C31322C31C4
:102DC000352C31342C4F4E2C4F46462C4F46460066
:102DD0004E45543A4F464600496E697469616C69C4
:102DE000736174696F6E20646F6E652100506F7738
:102DF000657220627574746F6E207072657373658E
:102E000064202D20636865636B696E6720666F724E
:102E1000206C6F6E67207072657373004C6F6E6705
:102E200020707265737320646574656374656400F3
:102E300053686F7274207072657373206465746573
:102E400063746564202D2067657474696E67206201
:102E50006174746572792073746174757320666F20
:102E600065647261616C00547269676765723A20CB
:102E70004D65737361676520666F7220426174747B
:102E800065727920566F6C746167652066756C6C2D
:102E9000792073656E6420616E64206261636B20CB
:102EA000696E2072656365697665206D6F64757300
:102EB0000041542B544553543D52584C52504B549E
:102EC00000547269676765723A2042617474657272
:102ED0007920766F6C74616765206F6620466F6538
:102EE000647261616C2069733A2000560054726903
:102EF000676765723A204261747465727920766FF3
:102F00006C74616765206F662054726967676572CB
:102F1000202069733A2000547269676765723A200D
:102F2000486F756E642028616E6420697427732071
:102F30004261747465727929206F7574206F662000
:102F4000626F756E64202D206E6F20726573706FD6
:102F50006E7365202F2074696D652D6F7574210067
:102F60004F6E652048616E646C6520707265737386
:102F700065640053656E64696E6720636F6D6D6193
:102F80006E6420746F2072656C6561736520686F74
:102F9000756E6400547269676765723A204D657397
:102FA0007361676520746F2052656C65617365207D
:102FB00066756C6C792073656E6420616E64206E3A
:102FC0006F7720746F2072656365697665206D6F19
:102FD00064757300547269676765723A20486F754B
:102FE0006E64206F7574206F6620626F756E64204A
:102FF0002D206E6F2066697273742061636B2F6E73
:10300000616B20726573706F6E7365202F20746919
:103010006D652D6F75742100547269676765723A2A
:103020002041636B20726563656976656420006D7D
:1030300073206166746572206669727374206861BA
:103040006C662D72656C656173652D707265737346
:1030500065642E00547269676765723A2053686F21
:103060007274657374206D6F746F72206475726111
:1030700074696F6E3A20006D7300547269676765FA
:10308000723A20546F74616C206475726174696F58
:103090006E2066726F6D2066697273742068616C51
:1030A000662D72656C656173652D70726573733A18
:1030B0002000547269676765723A20486F756E64C4
:1030C000206F7574206F6620626F756E64202D20EE
:1030D0006E6F207365636F6E642074696D657661D1
:1030E0006C756520726573706F6E7365202F207428
:1030F000696D652D6F7574210055534220706F778F
:10310000657220646973636F6E6E656374656420B5
:103110002D2044657669636520746F2069646C6551
:1031200020737461746520616E64207374617274BD
:10313000696E6720757000476F696E672066756CF1
:103140006C792061736C6565702E2E2E0048616C61
:1031500066206177616B652E2E2E0044656369647D
:10316000696E6720746F2077616B65207570206FC2
:1031700072206E6F740053686F7274207072657382
:1031800073206465746563746564202D20676F69BE
:103190006E67206261636B20746F20736C6565706D
:1031A000004C6F6E67207072657373206465746580
:1031B00063746564202D2073746179696E67206182
:0531C00077616B650062
:0431C50001FF000006
:00000001FF
